:100000000C94CF020C9416030C9416030C94160354
:100010000C9416030C9416030C9416030C941603FC
:100020000C9416030C9416030C946B200C943D2135
:100030000C94DC160C9416030C9416030C94160303
:100040000C9416030C9416030C9416030C941603CC
:100050000C9416030C9444170C9416030C9416037A
:100060000C9416030C9416030C9416030C941603AC
:100070000C9416030C9416030C9416030C9416039C
:100080000C9416030C9416030C9416030C9416038C
:100090000C9416030C9416030C9416030C9416037C
:1000A0000C9416030C9416030C941603EA05EC0545
:1000B000F705EE05F005F205F405F605F905FB0573
:1000C000FD050806FF0501060306050607060A06E4
:1000D000420D420D7C0D7C0DB10DD10DFC0E380F83
:1000E000DC0D380F8C0E8C0EF40E380F380F330FDA
:1000F000990E990E990E990E990E990E990E990EC8
:10010000990E990E990E990E990E990E990E990EB7
:10011000AB0EB80EBF0EC60ED00EB30FB30FC50F89
:10012000C50FBC0FC50FC50FC50FB30FB30FC10F60
:10013000C50FC50FC10FAA21CC21BA22CC21BA22EA
:1001400011223422BA2289229C220000F0A135001B
:100150003A4129610030023000001E0037000400DF
:1001600038004A003C001F003600120014004E0008
:100170002B002000330008000D004B6628002100F2
:10018000130018000E004D683D6522001C000C0095
:100190001B0000003E6D6400025300004C6700002D
:1001A0003F412E00C10000002B040000404123000D
:1001B0000900070005000000416D24000A00150039
:1001C0001000506844652500060017001A005166AB
:1001D0002C0026000B001100190052002A002700F5
:1001E0000F0016001D004F0004302D00306F3461E9
:1001F00001300330000045000100053016011608EB
:1002000000003A00640000001D011D0800003B00D2
:10021000640200001B011B0800003C0000000000FD
:10022000060106082A003D00000000001901190817
:1002300000003E0000000000000000000000A600DA
:1002400001000000035300000100A50001000000B0
:100250004600000001003F00000000000000000018
:10026000AE004000240021001E000000A900410053
:10027000250022001F003700AB00420026002300AB
:1002800020002700AC0043005500570054006700D1
:10029000AA0044002F0031000000000000004400CC
:1002A000270129003001380100003A0064002C00C9
:1002B00050004A00AA003B006402370051004E0083
:1002C000F5003C003D04F20052004B00F4003D00FC
:1002D000F000F1004F004D00A9003E000000F300C7
:1002E0002800000050040000010000000000000091
:1002F0004F040000000000000000000000000000AB
:1003000000000000000000000000000000000000ED
:1003100000000000000000000000000000000000DD
:1003200000000000000000000000000000000000CD
:1003300000000000000000000000000000000000BD
:10034000000000000000350001002961003002308B
:1003500000001E00140004001D004A0000001F00E1
:100360001A0016001B004E002B002000080007009A
:1003700006004B00280021001500090019004D005F
:100380003D65220017000A00050000003E6D640074
:10039000010000000100000001002E00010000002B
:1003A000E6000000010023001C000B00110000000B
:1003B000416D240018000D00100050004465250018
:1003C0000C000E00360051002C00260012000F0019
:1003D000370052002A0027001300330038004F0076
:1003E00004302D00306F34610130033000001603FB
:1003F0004500720067006F0044006F007800200025
:1004000045005A00000016034500720067006F00A7
:1004100044006F007800200045005A0000000403EB
:10042000090409026D00040100A0FA09040000019A
:10043000030101000921110100012240000705818B
:100440000308000A09040100010301020009211147
:10045000010001224D000705820308000A09040279
:1004600000010300000009211101000122360007EC
:1004700005830308000A09040300010300000009C2
:100480002111010001223900070584032000011217
:1004900001100100000008EDFE0713010001020039
:1004A0000105010906A101050719E029E715002545
:1004B0000195087501810205081901290595057541
:1004C0000191029501750391010507190029F7159E
:1004D00000250195F875018102C005010980A1017F
:1004E000850216810026B7001A81002AB700751010
:1004F00095018100C0050C0901A1018503160100C9
:10050000269C021A01002A9C02751095018100C0E8
:1005100005010902A1010901A10005091901290527
:10052000150025019505750181029501750381016D
:100530000501093009311581257F9502750881066D
:1005400009381581257F950175088106050C0A3843
:10055000021581257F950175088106C0C005010936
:1005600006A101050719E029E71500250195087581
:100570000181029501750881010508190129059578
:10058000057501910295017503910105071900296F
:10059000FF150026FF00950675088100C000112494
:1005A0001FBECFEFDAE0DEBFCDBF04B603FE27C02B
:1005B0008091DA029091DB02A091DC02B091DD0221
:1005C0008730904BA740B04BD1F41092DA021092D2
:1005D000DB021092DC021092DD0214BE84B7877F2A
:1005E00084BF0FB6F894A8958091600088618093CD
:1005F0006000109260000FBEE0E0FFE3099511E09B
:10060000A0E0B1E0EAE0F9E402C005900D92AC3D53
:10061000B107D9F722E0ACEDB1E001C01D92AA3DCF
:10062000B207E1F70E94B21D0C9483240C940000E1
:100630001092B9008AE08093B800089594EA9093EC
:10064000BC009091BC0097FFFCCF9091B900987FBF
:10065000983021F0903111F081E008958093BB0033
:1006600084E88093BC008091BC0087FFFCCF809120
:10067000B900887F883111F0803471F780E00895E7
:1006800084E98093BC008091BC0084FDFCCF089578
:100690008093BB0084E88093BC008091BC0087FFFE
:1006A000FCCF9091B900987F81E0983209F480E006
:1006B000089584E88093BC008091BC0087FFFCCF44
:1006C0008091BB00089580B38C7080BB81B3836F31
:1006D00081BB089580910101811115C080E40E94C1
:1006E0001E038093010181110CC082E10E94480326
:1006F00080930101811105C08FEF0E944803809310
:1007000001010E94400384B1807F84B985B1807F5C
:1007100085B98AB1837F8AB98BB1837F8BB93E98C3
:10072000469808950C945F050E947D09809301010D
:100730000E946A030E946303ADEDB1E0EBEEF1E0CD
:100740008EE08E0F11921D928E13FCCF0C946709D0
:100750000E947D09809301010E946A030E94630345
:10076000ADEDB1E0EBEEF1E08EE08E0F11921D9257
:100770008E13FCCF0895BF92CF92DF92EF92FF923B
:100780000F931F93CF93DF9380910101882379F01A
:100790008091DC018F5F8093DC01811108C00E9491
:1007A0007D0980930101811102C00E940F090DEDA6
:1007B00011E0C0E0D0E0EE24E394F12CDD24D394EA
:1007C00095E0C92EC730D10500F580910101811156
:1007D0003CC080E40E941E0380930101811112C07D
:1007E00082E10E9448038093010181110BC0C7017F
:1007F0000C2E01C0880F0A94EAF780950E944803E6
:10080000809301010E94400320C0CA30A1F028F467
:10081000C83059F0C93061F005C0CC3089F070F0B3
:10082000CD3089F0209A289810C0219A29980DC0BF
:10083000229A2A980AC0239A2B9807C0529A01C07C
:10084000539A5B9802C03E9A469880EA8A95F1F7DF
:10085000C730D10518F580910101811144C080E4B1
:100860000E941E0380930101882311F0B12C12C055
:1008700083E10E944803809301018111F7CF81E455
:100880000E941E03809301018111F0CF0E94590341
:10089000B82EB0940E9440038B2D26C08FB181707A
:1008A0008D25799902C092E001C090E0892B7C9956
:1008B00002C024E001C020E0822B7D9902C028E024
:1008C00001C020E0822B7E9902C090E101C090E03F
:1008D000892B9FB19095991F9927991F9295990FF0
:1008E000907E892B01C080E0F8019081981719F063
:1008F0008083C09200010E946A0321960F5F1F4F00
:10090000CE30D10509F05ECF809100018823A1F09F
:10091000815080930001882329F0F5E0FA95F1F7E2
:1009200000000AC0ABEEB1E0EDEDF1E0CF01825F77
:1009300091919D938E13FCCF0E94990681E0DF91E7
:10094000CF911F910F91FF90EF90DF90CF90BF90CC
:100950000895E82FF0E0E551FE4F80810895089555
:10096000FC01623009F447C028F4662361F061306D
:1009700051F1A1C0643009F478C008F45CC065305E
:1009800009F48FC098C08281882341F00E940E171D
:100990009093FA018093F90185EE87C085EE0E945D
:1009A000AA0C8091F9019091FA010E941A178A35D8
:1009B000910508F080C086EE0E94D70B84E30E9468
:1009C000D70B84E34EC082818111E0CF85EE0E9477
:1009D000AA0C8091F9019091FA010E941A178A35A8
:1009E000910508F068C086EE0E94D70B81E30E9453
:1009F000D70B81E336C08281882341F00E940E1715
:100A00009093FA018093F90182EE4FC082EE0E942A
:100A1000AA0C8091F9019091FA010E941A178A3567
:100A2000910508F048C086EE0E94D70B8FE20E9425
:100A3000D70B8FE216C082818111E0CF82EE0E9437
:100A4000AA0C8091F9019091FA010E941A178A3537
:100A5000910588F586EE0E94D70B80E30E94D70BA4
:100A600080E30E94AA0C86EE24C08281882341F094
:100A70000E940E179093FA018093F90186EE15C03B
:100A800086EE0E94AA0C8091F9019091FA010E94D1
:100A90001A178A35910578F485E40E94D70B85E40E
:100AA00008C08281882321F089E30E94D70B03C00C
:100AB00089E30E94AA0C80E090E008950895609177
:100AC0006B0270916C0280916D0290916E020E9497
:100AD0000F1656985E9825982D9826982E98279848
:100AE0002F98823029F0833031F0813051F407C0E3
:100AF000269A2E9A06C0259A2D9A269A2E9A279AD9
:100B00002F9A0E94640A82FF02C0259A2D9A0895A6
:100B100081E0089581E008950C948A050E94A10F58
:100B20002FEF84E39CE0215080409040E1F700C02B
:100B300000000C9469170F931F93CF93DF938C01E0
:100B4000FC01C081D181CE010E949414BE010E949B
:100B50003008EC01B8010E948C05882309F4E3C039
:100B6000B801CE010E94C008882309F4DCC0B80196
:100B7000CE010E94480A882309F4D5C0C531F0E7A8
:100B8000DF0708F07DC0C23080E7D80708F452C004
:100B9000F8018281882309F459C00E9479168111D5
:100BA00002C00E945F160E948C1690E09093CC02C7
:100BB0008093CB02FE01E350F047E231F10530F4BF
:100BC000EA5AFF4F8091CB020C9433248091CB02E0
:100BD000816027C0826025C0846023C0806121C0FD
:100BE00080621FC080641DC080681BC084608860F4
:100BF00018C08E7F16C08D7F14C08B7F12C08F7E71
:100C000010C08F7D0EC08F7B0CC08F770AC08B7F8A
:100C1000877F07C087FB222720F991E0922790FB6E
:100C200087F98093CB028091CB020E9490160E949C
:100C3000A10F79C0C115E0E7DE0779F0C130D047D8
:100C4000A1F081E08093FD018093FE01C801DF9156
:100C5000CF911F910F910C948805F8018281882310
:100C600009F461C00E948E055EC0F801828188236C
:100C700009F459C08091980281608093980253C012
:100C8000CC3380E7D80719F5F8018281882351F029
:100C90001092FD010E940E179093FC018093FB01BE
:100CA00082E026C08091FD0181110FC08091FB017F
:100CB0009091FC010E941A17883C910530F486E25D
:100CC0000E94D70B86E20E94AA0C82E019C0CD33A5
:100CD000D04709F0B6CFF8018281882361F01092E5
:100CE000FE010E940E179093FC018093FB0180E2AD
:100CF0000E94F90C18C08091FE01882321F080E247
:100D00000E94000D10C08091FB019091FC010E9497
:100D10001A17883C910598F787E20E94D70B87E263
:100D20000E94AA0CECCF80E0DF91CF911F910F9130
:100D300008950C94920308950C949B060C949C06C1
:100D400026E0729FF001112444E5849FE00DF11D1F
:100D50001124E60FF11DEE0FFF1FE25BFE4F8591A0
:100D600094910E944208811560E49607B0F58115C0
:100D700070E3970708F0E6C0803E9105D8F4803C08
:100D8000910508F06CC0883A910578F4853A910590
:100D900008F06BC08130910509F460C108F417C1F7
:100DA0008430910508F05AC112C18D3B910508F4B9
:100DB00067C00DC18F3F910509F048F4803F910550
:100DC00008F0B5C0883E910508F448C100C18115FE
:100DD00020E2920708F0ADC00895811543E594071D
:100DE00090F4811562E5960708F0D0C0811571E591
:100DF000970708F0C6C0811520E5920708F0A5C046
:100E00009F70906A0895811545E59407D8F481157F
:100E100064E5960708F0D0C0482F4695469570E2E5
:100E2000479FA00111248370992721E030E0B90188
:100E300002C0660F771F8A95E2F7CB01842B952BB2
:100E40009A680895811576E5970708F4BAC09C0161
:100E500030562115304108F0BAC09F70B6C0FC0171
:100E6000EE0FFF1FE653F0406AC0853A910509F482
:100E7000B1C0863A910509F0B0C082E890E40895C7
:100E8000883A910509F4ACC0893A910509F4ABC0E0
:100E90008A3A910509F4AAC08B3A910509F4A9C0D0
:100EA0008C3A910509F4A8C08B3B910509F4A7C0C1
:100EB0008C3B910509F4A6C08D3A910509F4A5C0B3
:100EC000803B910509F4A4C08E3A910509F4A3C0B2
:100ED0008F3A910509F4A2C0813B910509F4A1C0A4
:100EE000823B910509F4A0C0833B910509F49FC0A2
:100EF000843B910509F49EC0853B910509F49DC092
:100F0000863B910509F49CC0873B910509F49BC081
:100F1000883B910509F49AC0893B910509F499C071
:100F20008A3B910509F498C080E094E408959065A7
:100F30000895FC01FF70EE0FFF1FE65BFE4F8591E9
:100F4000949108959927906C0895482F437021E05B
:100F500030E002C0220F331F4A95E2F73C68AC0133
:100F600064E0569547956A95E1F74370342B8F708E
:100F70008695869560E2869FC0011124822B932B73
:100F80000895982F8827816F906A0895482F469575
:100F9000469570E2479FA00111248370992721E0B4
:100FA00030E0B90102C0660F771F8A95E2F7CB01E6
:100FB000842B952B9C680895982F8827846F906ABE
:100FC00008958F719927982F88279062089580E05F
:100FD00090E0089581E890E4089583E890E408950E
:100FE00082EE94E4089589EE94E408958AEE94E400
:100FF000089585EB94E4089586EB94E4089583EBDB
:1010000094E4089584EB94E4089587EB94E40895C0
:101010008CEC94E408958DEC94E4089583E895E4D1
:1010200008958AE895E4089582E995E4089584E9AD
:1010300095E4089581E296E4089583E296E40895A4
:1010400084E296E4089585E296E4089586E296E4C3
:10105000089587E296E408958AE296E40895089553
:1010600096E0799FF001112494E5899FE00DF11D30
:101070001124E60FF11DEE0FFF1FE25BFE4F85917D
:10108000949108958238910549F1B0F48133910526
:1010900009F458C048F48932910509F44EC08A32E7
:1010A000910509F454C008958533910509F440C0B1
:1010B0008933910599F00895833E910529F138F41B
:1010C000803E910591F0823E9105A1F00895863E03
:1010D0009105F9F0873E910531F108952091CB02F9
:1010E00020FD3AC021FD38C008958091CB0280FDDB
:1010F00035C032C08091CB0282FF32C08091CB02DA
:1011000084FD30C083EE39C08091CB0282FD28C0BF
:10111000F5CF8091CB0283FF27C08091CB0284FD65
:1011200021C087EE2AC08091CB0283FD1DC0F5CF80
:101130008091CB0285FD1AC01BC08091CB0285FD3A
:1011400017C014C08091CB0286FD14C015C08091D9
:10115000CB0286FD11C00EC080EE0FC089E30DC02A
:1011600082EE0BC080E009C086EE07C089E205C0B0
:1011700085E303C08AE201C081E390E00895089509
:101180000F931F93CF93FB012281211102C0C1E075
:1011900041C08C01C0910C02C11125C0853190471E
:1011A000B1F70E94BF0881E080930C020E940E17E5
:1011B00090930B0280930A021092FF011092010299
:1011C0001092000210920302109202021092050285
:1011D0001092040210920702109206021092090265
:1011E0001092080217C080910A0290910B020E948F
:1011F0001A17883C910558F69091FF01E92FF0E00D
:10120000EE0FFF1FE050FE4F118300839F5F90930E
:10121000FF01C0E08C2FCF911F910F910895569838
:101220005E9825982D9826982E9827982F988FEFBE
:1012300090E0909389008093880090938B00809336
:101240008A0090938D0080938C00259A2D9A2FEF21
:1012500080E792E0215080409040E1F700C000001C
:10126000269A2E9A2FEF80E792E0215080409040FE
:10127000E1F700C00000279A2F9A2FEF80E792E055
:10128000215080409040E1F700C0000025982D9843
:101290002FEF80E792E0215080409040E1F700C0BE
:1012A000000026982E982FEF80E792E02150804092
:1012B0009040E1F700C0000027982F9856985E985C
:1012C00025982D9826982E9827982F98089589EA82
:1012D0008093800089E08093810024982C983F9827
:1012E0008AB18F748AB96E98479A8BB1806B8BB92B
:1012F000769A0E940F090C945E0580E280930101AA
:1013000080910D0281110EC00E94180381E080932C
:101310000D022FEF83ED90E3215080409040E1F7E4
:1013200000C0000080E40E941E038093010181112F
:101330002EC00E94480380930101811128C00E94A1
:10134000480380930101811122C08FE30E9448036A
:101350008093010181111BC00E94400380E40E9420
:101360001E0380930101811112C08CE00E9448038A
:101370008093010181110BC00E94480380930101F9
:10138000811105C08FE30E944803809301010E94F0
:101390004003809101010895282F882339F090E0BF
:1013A0002A3010F44D9608950697089587E290E04C
:1013B000089580910E028130A1F078F0823011F111
:1013C000843049F586EE0E94D70B86EE0E94AA0C67
:1013D00088E10E94D70B88E11CC082EE0E94D70BE7
:1013E0001AC080EE0E94D70B81EE0E94D70B88E1D5
:1013F0000E94D70B88E10E94AA0C81EE0E94AA0CE1
:1014000080EE07C082EE0E94D70B87E50E94D70BC3
:1014100087E50E94AA0C8FE39CE90197F1F700C0D1
:101420000000089580910E02813029F010F0823082
:1014300041F482EE04C08CE20E94D70B8CE20C9443
:10144000AA0C0895EF92FF921F93CF93DF937C0134
:10145000CCE0D0E097010C2E02C0369527950A9477
:10146000E2F7122F1F70812F0E94CC090E94D70B28
:10147000812F0E94CC090E94AA0C2497CC3F8FEFA9
:10148000D80741F7DF91CF911F91FF90EF9008951A
:10149000CF93DF93813020E8920768F0FB0122812F
:1014A000222349F0EC010E94D909CE019F770E94C6
:1014B000220A0E94120A81E0DF91CF910895909351
:1014C0001402809313020895E0911302F091140224
:1014D000309721F00190F081E02D099480E008958B
:1014E000E0911302F0911402309721F00280F38111
:1014F000E02D09940895E0911302F09114023097C1
:1015000021F00480F581E02D0994089520911102C5
:10151000309112028217930771F090931202809318
:101520001102E0911302F0911402309721F006802D
:10153000F781E02D0994089520910F023091100257
:101540008217930771F09093100280930F02E0913D
:101550001302F0911402309721F00084F185E02D00
:101560000994089508950C94B20A0E9405170E94E8
:1015700094030C948B17CF92DF92EF92FF920F930C
:101580001F93CF93DF93CDB7DEB72B970FB6F894A9
:10159000DEBF0FBECDBF0E94BB0386E1C82E82E036
:1015A000D82E00E010E0E02E802F0E94A904F60162
:1015B00041916F01F42EF826B1F40F5F1F4F0E30EA
:1015C000110589F78FEF89838A831B820E940E178A
:1015D0008160782F9D838C8349815A816B818D81B5
:1015E0000E949A0B40C09091980291FF04C08B8793
:1015F0000E94AF048B8520E030E04F2D50E0922F09
:10160000BA01022E02C0759567950A94E2F760FF51
:1016100024C02E83EF8221E030E0690102C0CC0CAF
:10162000DD1C9A95E2F790E08C219D21892B09F42D
:1016300020E028870E940E178160782F9A8789877B
:101640004E815F8168858A850E949A0BF801EA5E67
:10165000FD4F8081C826C08206C02F5F3F4F2630D5
:10166000310569F6AACF0E941E19109115020E9439
:10167000640A1817A1F00E94640A809315022B9641
:101680000FB6F894DEBF0FBECDBFDF91CF911F9193
:101690000F91FF90EF90DF90CF900C949E062B96C9
:1016A0000FB6F894DEBF0FBECDBFDF91CF911F9173
:1016B0000F91FF90EF90DF90CF900895DC0111968D
:1016C0002C9111978C91682F70E041E050E001C09F
:1016D000440F8A95EAF712968C91129730E088238E
:1016E00029F0809132028823E9F006C0F901EC5D0F
:1016F000FD4F90819423B1F086E0829FF001839F9B
:10170000F00D1124E60FF71FEE0FFF1FEB5EFE4FEB
:10171000808191818D939C93F901EC5DFD4F8081D7
:10172000482B06C0F901EC5DFD4F409580814823B0
:1017300040830895CF93DF93CDB7DEB72B970FB6D5
:10174000F894DEBF0FBECDBF942F4F83252F58874F
:1017500069877A878B874A855B85452B21F02F3FE8
:1017600009F59F3FF9F4DE01119686E0FD01119223
:101770008A95E9F785E0FE01379601900D928A95EA
:10178000E1F749815A816B817C818D819E810E9424
:1017900039122B960FB6F894DEBF0FBECDBFDF9186
:1017A000CF910895CE0107960E945E0BDCCFCF93B8
:1017B000882309F4CDC0C82F823859F40E94640AE6
:1017C00081FDC6C089E30E9413150E94E01589E3DC
:1017D0000CC0833879F40E94640A80FDB9C083E5A7
:1017E0000E9413150E94E01583E50E945515CF91C4
:1017F0000C94E015843859F40E94640A82FDA8C054
:1018000087E40E9413150E94E01587E4EECF8CEF69
:101810008C0F813A48F48C2F0E945E1B811198C076
:101820008C2F0E941315E3CF80E28C0F883048F490
:10183000C77081E001C0880FCA95EAF70E94991528
:10184000D6CF8BE58C0F833078F4C53A29F0C63AB1
:1018500031F083E890E005C081E890E002C082E8C2
:1018600090E0CF910C94860A88E58C0F853108F0C2
:101870006FC0C83A61F1C93A69F1CA3A71F1CB3A1D
:1018800079F1CC3A81F1CB3B89F1CC3B91F1CD3A66
:1018900099F1C03BA1F1CE3AA9F1CF3AB1F1C13BE8
:1018A000B9F1C23BC1F1C33BC9F1C43BD1F1C53B66
:1018B000D9F1C63BE1F1C73BE9F1C83BF1F1C93BC6
:1018C000F9F1CA3B09F43FC080E090E03EC082EEEF
:1018D00090E03BC089EE90E038C08AEE90E035C0E1
:1018E00085EB90E032C086EB90E02FC083EB90E078
:1018F0002CC084EB90E029C087EB90E026C08CECF4
:1019000090E023C08DEC90E020C083E891E01DC002
:101910008AE891E01AC082E991E017C084E991E079
:1019200014C081E292E011C083E292E00EC084E232
:1019300092E00BC085E292E008C086E292E005C02A
:1019400087E292E002C08AE292E0CF910C949C0A76
:10195000CF910895882309F44BC0823859F40E942E
:10196000640A81FF45C089E30E9413150E94E015B7
:1019700089E30CC0833871F40E94640A80FF38C088
:1019800083E50E9413150E94E01583E50E9455151A
:101990000C94E015843859F40E94640A82FF28C030
:1019A00087E40E9413150E94E01587E4EFCF9CEFB7
:1019B000980F913A58F390E2980F983050F487704E
:1019C00091E001C0990F8A95EAF7892F0E949F152F
:1019D000DFCF9BE5980F933020F480E090E00C94EB
:1019E000860A885A853120F480E090E00C949C0AA5
:1019F0000895882321F00E9499150C94E01508950C
:101A0000882321F00E949F150C94E01508958F9271
:101A10009F92AF92BF92CF92DF92EF92FF920F937D
:101A20001F93CF93DF931F92CDB7DEB77C01C72EF4
:101A3000FC01058102950F701281112321F0698349
:101A40000E94B615698169830E940C1569818823FB
:101A500081F0112371F080E2860F883050F082E02F
:101A60000E94F5140E940C1591E0D82ED9266981A8
:101A700001C0D12CEC2DE295EF70F0E0E859FF4F5A
:101A80000C9433248C2D807F0C2D0F70882311F043
:101A90000295007F1123C1F0002309F49BC180E26D
:101AA000860F883010F0611105C0802F69830E9475
:101AB000991504C0802F69830E94A91569816983E3
:101AC0000E94E015698186C1862F69830E94AA0C55
:101AD0006981002309F4CCC180E2860F883010F0C0
:101AE000611104C0802F0E949F1503C0802F0E94A7
:101AF000AF150E94E015BCC19C2D907F8C2D8F707E
:101B0000903211F08295807F662319F06130B1F038
:101B10001EC0112349F0002309F414C1013009F05B
:101B200011C10E94C915A4C1002319F0013009F4A4
:101B30009FC189830E94CC1589810AC1112321F09C
:101B4000023008F095C1FEC0011192C101C11123FC
:101B500021F0002309F4F6C03DC1002309F4F8C0C8
:101B60003FC18C2D86958695837090E0009719F083
:101B7000019761F07DC1112321F0862F9C2D937078
:101B800002C080E090E00E94860A72C1112321F019
:101B9000862F9C2D937002C080E090E00E949C0AEA
:101BA00067C1862F112319F00E94261802C00E94D7
:101BB0008E180E9413195CC18C2D837009F052C0DD
:101BC000111156C1862F829586958770880F880FD0
:101BD000962F9F70892E912CA12CB12C082E04C019
:101BE000880C991CAA1CBB1C0A94D2F764FF14C071
:101BF0000FE010E020E030E0B901A80104C0440F7C
:101C0000551F661F771F8A95D2F7CB01BA016095E1
:101C100070958095909503C060E070E0CB012C2D0D
:101C200026952695237030E02230310569F0233067
:101C3000310589F0682979298A299B2921303105C4
:101C400071F00E94811314C1682979298A299B297E
:101C50000E949D130DC10E948113C501B4010E9411
:101C6000651306C1112319F08C2D817001C0869572
:101C7000882309F4FDC0862F829586958770880F8A
:101C8000880F962F9F70892E912CA12CB12C082E95
:101C900004C0880C991CAA1CBB1C0A94D2F764FFD0
:101CA00014C00FE010E020E030E0B901A80104C04A
:101CB000440F551F661F771F8A95D2F7CB01BA01D3
:101CC000609570958095909503C060E070E0CB01C1
:101CD0002C2D269526952370422F50E04230510539
:101CE00069F04330510589F0682979298A299B29AF
:101CF0004130510571F00E945B14BAC068297929FE
:101D00008A299B290E947714B3C00E945B14C501E5
:101D1000B4010E943F14ACC0862F90E0FC01E05E4D
:101D2000F109E531F10508F051C0E858FF4F0C9476
:101D30003324062F0F708C2D8F71112331F00E94E8
:101D4000D813802F0E94F90C93C00E94F913802FA2
:101D50000E94000D8DC0112339F0011189C08C2D16
:101D60008F710E941E1484C0023008F081C0F7CF2A
:101D7000112339F08C2D8F710E94D81379C0112353
:101D8000C9F38C2D8F710E94F91372C0112329F0B1
:101D90008C2D8F710E94C3136BC00E94B91368C051
:101DA000112351F01C2D1F71812F0E94D81363E065
:101DB000812F0E94EC145CC081E00E94F514023077
:101DC00008F456C082E00E94F51452C0112331F08D
:101DD000002381F2862F0E94D70B4AC0002389F28C
:101DE000862F0E94AA0C44C04C2D4F70C7010E9440
:101DF000B0040E94DD123CC0623F99F128F4603FBC
:101E000049F0613FE1F020C0643FA1F050F0653F30
:101E100059F01AC0112339F19091320281E08927DB
:101E200006C081E018271DC011111DC081E08093FC
:101E3000320219C0111117C01092320214C00023CF
:101E400081F0111110C0E8CF002359F0862F69836B
:101E5000112319F00E94D70B02C00E94AA0C6981BD
:101E600002C0109332024C2D4F70C7010E942F0800
:101E7000DD20F1F00E94E81480FD1AC0F701128203
:101E80000E94E2140E94D813C7010E94660F0E94AC
:101E9000E2140F90DF91CF911F910F91FF90EF907F
:101EA000DF90CF90BF90AF909F908F900C94F913DC
:101EB0000F90DF91CF911F910F91FF90EF90DF90E6
:101EC000CF90BF90AF909F908F9008950F931F93E6
:101ED000CF93DF93EC01888199812B813C81232B67
:101EE000B9F09F3F11F48F3F99F0CE010E949B05FE
:101EF000882371F0688179818A810E94DE148C01C7
:101F00000E9493140E945A13B801CE010E94070D3B
:101F1000DF91CF911F910F9108950E94B6150E94F5
:101F2000C6150E948B150E94E0150E94C3190E94DD
:101F3000131980E090E00E94860A80E090E00C9403
:101F40009C0A0E94A6150C948D0F0E94D314E92FB1
:101F5000E295EF70F0E03297EE30F105B0F4E35720
:101F6000FF4F0C943324803F91F018F4803E68F4C6
:101F70000EC0843F51F40BC0803E48F0813F29F4ED
:101F800006C093FB882780F9089580E0089581E0DA
:101F90000895CF93DF9300D000D01F92CDB7DEB766
:101FA0000F900F900F900F900F90DF91CF910895A9
:101FB000CF93DF9300D000D000D0CDB7DEB7269608
:101FC0000FB6F894DEBF0FBECDBFDF91CF9108955D
:101FD0001F93CF93DF93C091330216E080913402B8
:101FE000C81799F0D0E01C9FF0011D9FF00D11243F
:101FF000EB5CFD4F408151816281738184819581C9
:102000000E94D80F2196C770E9CFDF91CF911F9121
:102010000895409165025091660260916702709147
:1020200068028091690290916A020C94D80F8091A5
:102030006A0282958F7009F054C0809167028823EC
:1020400009F44FC080913302A0913402609165027F
:10205000709166024091680250916902B6E08A1759
:1020600009F43FC090E041155105C1F17F3F11F4E3
:102070006F3FA1F1B89FF001B99FF00D1124EB5C07
:10208000FD4F218172132AC02081621327C0228153
:10209000211124C0238134812417350710F42150E5
:1020A0003109241B350B283C3105C0F420916A020C
:1020B0002F70206120936A0226E0289FF001299F5B
:1020C000F00D1124E65CFD4F80818F70806180836C
:1020D00085E692E00E94660F0C94E80F01968770E7
:1020E000BECF0895CF92DF92EF92FF920F931F938E
:1020F000CF93DF93CDB7DEB762970FB6F894DEBF0C
:102100000FBECDBF8C0185E0F801DE011D96019068
:102110000D928A95E1F7D8014C9111965C91119737
:1021200012966C9112971396CD90DC901497309183
:102130006502709166028091680290916902009731
:1021400009F46BC17F3F19F43F3F09F466C1E09089
:102150006702EE2009F4C0C020916A02C816D906B1
:1021600028F0F601E81BF90BCF0104C0809590958B
:102170008C0D9D1DFF24F394883C910578F0F12C83
:10218000207F09F0C6C07C2DD98AC88A89890E941F
:10219000C90F85E692E00E94660FB1C0822F807F52
:1021A00009F046C0751314C0341312C0611110C079
:1021B0002F70206120936A020E94091085E692E048
:1021C0000E94660F80916A02D80115968C932EC0EA
:1021D000CD2819F15F3F11F44F3FF9F0F62E611150
:1021E0001CC0809133022091340236E0821709F43A
:1021F0005AC090E0389FF001399FF00D1124EB5C3C
:10220000FD4F7181571306C07081471303C072815F
:10221000711103C001968770E9CFF62E662309F489
:1022200018C180916A02816080936A02F12C11C109
:10223000751308C0341306C0611104C080916A028E
:10224000D801C3C04D875E878D859E856A8B0E94AD
:10225000A50F6A898823E1F16623D1F120916A02F2
:10226000822F82958F7090E0029774F080916502C2
:102270009091660298878F831986DB86CA862C87A1
:10228000CE0107960E94660F86E0F801A5E6B2E04F
:1022900001900D928A95E1F70E9417100E94091093
:1022A000FF24F394D6C04D875E878D859E850E945E
:1022B000D314292F22952F7030E0223031050CF0F5
:1022C000BCC09F7009F0B6C0805E883008F4C1C001
:1022D000C8010E94660FE4CFC816D90608F453C09F
:1022E000F601E81BF90BCF01883C910508F450C0BA
:1022F000F12C7C2DD98AC88A89890E94C90FE5E60C
:10230000F2E086E0DF011D928A95E9F70E9409104C
:10231000A0C0751314C0341312C0611110C0809195
:102320006A02F8018583C8010E94660F86E0E5E62F
:10233000F2E0DF011D928A95E9F7FE2C8AC04D87F5
:102340005E878D859E856A8B0E94A50F6A8988238A
:1023500009F4BECF662309F4BBCF20916A02822F15
:1023600082958F7090E002970CF48ECF8091650279
:10237000909166029A8389831B82DD82CC822E83B0
:10238000CE0101967FCF809590958C0D9D1DACCF91
:10239000F62E662309F49CCF75132EC034132CC07F
:1023A00020916A0220FD1FC0822F82958F70D9F084
:1023B000D80115962C9315978F3049F08F5F982F81
:1023C0009295907F822F8F70892B15968C93C801E0
:1023D0000E94660F86E0F801A5E6B2E001900D923A
:1023E0008A95E1F793CF86E0F801A5E6B2E0019087
:1023F0000D928A95E1F72DC04D875E878D859E856C
:102400000E94A50F811140CF80916A028160809364
:102410006A02C8010E94660F1CC0662309F458CFE7
:102420004D875E878D859E850E94A50F882309F4C0
:102430004FCF2ACF811148CF0CC0243031050CF08A
:1024400047CF9F7009F440CFF8019581907F09F044
:102450003BCF8F2D62960FB6F894DEBF0FBECDBF77
:10246000DF91CF911F910F91FF90EF90DF90CF9070
:1024700008951F93CF93DF93CDB7DEB72C970FB698
:10248000F894DEBF0FBECDBF4F83588769877A8728
:102490008B879C87CE0107960E947210882369F073
:1024A0008F8198852A853B85232BF1F19F3F09F089
:1024B00063C08F3F09F060C037C086E0FE013796E9
:1024C000DE01119601900D928A95E1F76F81788572
:1024D000EA85FB85309741F17F3F11F46F3F21F191
:1024E0002091340230E0C90101968770992740910C
:1024F000330250E08417950709F447C069837A8353
:10250000FD83EC8396E0929FD001939FB00D112440
:10251000AB5CBD4FFE01319601900D929A95E1F7AB
:10252000809334020E94E80F16E08091330290916C
:1025300034028917C1F1189FC00111248B5C9D4F93
:102540000E947210882379F1E09133021E9FF001FE
:102550001124EB5CFD4F4081518162817381848144
:1025600095810E94D80F8091330290E00196877088
:10257000992780933302D9CF4F81588569857A8511
:102580008B859C850E94D80FCFCF0E94A10F1092FF
:10259000340210923302E5E6F2E086E0DF011D929C
:1025A0008A95E9F7C1CF2C960FB6F894DEBF0FBE1F
:1025B000CDBFDF91CF911F910895EF92FF920F93BE
:1025C0001F93CF93DF938C01892B09F46CC0F12CFE
:1025D000EE24E394E8012196F8018491843740F4D5
:1025E000843008F051C0813081F0823019F15BC035
:1025F000853709F444C0A8F19CE7980F903708F09C
:1026000052C08F770E94AA0C41C00E5F1F4FFE017F
:10261000C49180E28C0F883048F4C7708E2D01C0C1
:10262000880FCA95EAF70E94B91514C08C2F0E9432
:10263000D70B2DC00E5F1F4FFE01C49180E28C0F9F
:10264000883058F4C7708E2D01C0880FCA95EAF7FC
:102650000E94BF150E94E0151AC08C2F0E94AA0C80
:1026600016C00E5F1F4FFE01C491CC2381F08FE98D
:102670009FE00197F1F700C00000C150F6CF0E5F58
:102680001F4FFE01F49003C00E94D70B8E018F2DC7
:10269000882309F49FCFEFE9FFE03197F1F700C0FD
:1026A00000008150F5CFDF91CF911F910F91FF90E6
:1026B000EF900895089560936F0270937002809375
:1026C0007102909372020C948D0F0F931F930091DF
:1026D0006F02109170022091710230917202DC0140
:1026E000CB01802B912BA22BB32B80936F02909365
:1026F0007002A0937102B09372021F910F910C941B
:102700008D0F0F931F9300916F0210917002209113
:10271000710230917202DC01CB0180239123A2234C
:10272000B32380936F0290937002A0937102B093D1
:1027300072021F910F910C948D0F0F931F930091B4
:102740006F02109170022091710230917202DC01CF
:10275000CB0180279127A227B32780936F02909304
:102760007002A0937102B09372021F910F910C94AA
:102770008D0F10926B0210926C0210926D021092EB
:102780006E020C948D0F41E050E060E070E004C0F8
:10279000440F551F661F771F8A95D2F740936B022F
:1027A00050936C0260936D0270936E020C948D0FC7
:1027B00041E050E060E070E004C0440F551F661F28
:1027C000771F8A95D2F780916B0290916C02A0914D
:1027D0006D02B0916E02482B592B6A2B7B2B4093D4
:1027E0006B0250936C0260936D0270936E020C94B6
:1027F0008D0F41E050E060E070E004C0440F551FD1
:10280000661F771F8A95D2F7409550956095709511
:1028100080916B0290916C02A0916D02B0916E025A
:10282000482359236A237B2340936B0250936C0205
:1028300060936D0270936E020C948D0F41E050E036
:1028400060E070E004C0440F551F661F771F8A9533
:10285000D2F780916B0290916C02A0916D02B091C1
:102860006E02482759276A277B2740936B025093B3
:102870006C0260936D0270936E020C948D0F0F9337
:102880001F9300916B0210916C0220916D023091A8
:102890006E02DC01CB01802B912BA22BB32B8093FA
:1028A0006B0290936C02A0936D02B0936E021F9125
:1028B0000F910C948D0F0F931F9300916B02109149
:1028C0006C0220916D0230916E02DC01CB018023FD
:1028D0009123A223B32380936B0290936C02A09365
:1028E0006D02B0936E021F910F910C948D0F0F9398
:1028F0001F9300916B0210916C0220916D02309138
:102900006E02DC01CB0180279127A227B327809399
:102910006B0290936C02A0936D02B0936E021F91B4
:102920000F910C948D0F0895CF92DF92EF92FF924A
:102930000F931F93CF93DF938C01C0906F02D090C1
:102940007002E0907102F090720280916B0290919F
:102950006C02A0916D02B0916E02C82AD92AEA2AAF
:10296000FB2ACFE1D0E0D701C6010C2E04C0B695FA
:10297000A795979587950A94D2F780FF06C0B8016E
:102980008C2F0E94A006019721F4219760F780E028
:1029900001C08C2FDF91CF911F910F91FF90EF908D
:1029A000DF90CF900895CF93DF93EC010E949414B1
:1029B000BE010E94A006DF91CF910895CB010E9435
:1029C000D314089580917302859585958595089512
:1029D000809173028770089598E0899F9001112477
:1029E000262B209373020C94D813209173028095A8
:1029F000822380937302982F977069F430E0482FF8
:102A0000082E000C550B2417350729F08595859560
:102A100085950C94F913089590917302977081E055
:102A200009F480E0089590911401992321F0909188
:102A3000CB0297FD09C02091020130910301F901F9
:102A400032969FEF40E01FC0982F969596959695E9
:102A50009F3150F5E0910201F0910301E90FF11D62
:102A6000877021E030E0A90102C0440F551F8A950C
:102A7000E2F7CA019181892B818308959F3F39F044
:102A80004F5F4E3141F051915813F8CF0DC05111A5
:102A9000F7CF942FF5CF9F3F39F0F901E90FF11DE2
:102AA00097FDFA95828308950895909114019923D2
:102AB00021F09091CB0297FD09C020910201309145
:102AC0000301F9013296205E3F4F1FC0982F969563
:102AD000969596959F31F0F4E0910201F0910301F3
:102AE000E90FF11D877021E030E0A90102C0440F19
:102AF000551F8A95E2F7CA018095918189238183C8
:102B000008953196E217F30729F090819813F9CFD1
:102B10001082F7CF089581E090E0E0910201F091FA
:102B20000301E80FF91F1082019680329105A9F781
:102B3000089590919702892B80939702089580952C
:102B4000909197028923809397020895109297029B
:102B5000089590919602892B80939602089580950E
:102B6000909196028923809396020895109296027E
:102B7000089590919502892B8093950208958095F0
:102B80009091950289238093950208951092950261
:102B900008958093740208951092740208958091AC
:102BA000020190910301FC0131969C01205E3F4F90
:102BB00080E0919191118F5FE217F307D1F70895AB
:102BC000E0910201F0910301809197028083E091EE
:102BD0000201F0910301908180919602892B8083FC
:102BE000E0910201F0910301908180919502892B7F
:102BF000808380917402882361F0E0910201F0915A
:102C000003019081892B80830E94CF15811110923E
:102C1000740280910201909103010C94700ACF928A
:102C2000DF92EF92FF926C01EE24FF24C114D104D5
:102C3000E104F10421F0C701B60120E101C020E068
:102C4000C72ED82EE92EFF24C114D104E104F104CB
:102C500019F0285FC701B6016B017C0154E0F694BE
:102C6000E794D794C7945A95D1F7C114D104E104DD
:102C7000F10419F02C5FC701B6016B017C0142E041
:102C8000F694E794D794C7944A95D1F7C114D10428
:102C9000E104F10419F02E5FC701B601DC01CB019C
:102CA000B695A79597958795892B8A2B8B2B09F03D
:102CB0002F5F822FFF90EF90DF90CF9008956DEE01
:102CC0007EEF80E090E00E946D2460E082E090E082
:102CD0000E945B2460E083E090E00E945B2460E05F
:102CE00084E090E00E945B2460E085E090E00C943A
:102CF0005B2480E090E00E94552421E08D3E9E4FB1
:102D000009F020E0822F089582E090E00C944D2499
:102D100083E090E00C944D2484E090E00C944D24EA
:102D2000682F84E090E00C945B248091D102843081
:102D300039F11092990220E488E190E00FB6F894FE
:102D4000A895809360000FBE2093600080E00E94F1
:102D50009E0683B7817F846083BF83B7816083BF12
:102D60007894889583B78E7F83BF0FB6F894A89523
:102D700080916000886180936000109260000FBEB7
:102D800008950895CF930E94A8030E94BB030E9458
:102D9000C116C0E08C2F0E94A904811104C0CF5F2E
:102DA000CE30C1F701C081E0CF9108950E94A10FFC
:102DB0000E94640A0C949E061F920F920FB60F9207
:102DC00011248F939F93AF93BF93809199028111A8
:102DD00013C080919A0290919B02A0919C02B091A5
:102DE0009D024196A11DB11D80939A0290939B0272
:102DF000A0939C02B0939D02BF91AF919F918F9140
:102E00000F900FBE0F901F90189582E084BD93E045
:102E100095BD9AEF97BD80936E0008952FB7F894F3
:102E200080919A0290919B02A0919C02B0919D0288
:102E30002FBF0895CF92DF92EF92FF920F931F93CF
:102E40002FB7F89440919A0250919B0260919C0296
:102E500070919D022FBF6A017B01EE24FF248C013B
:102E600020E030E0C016D106E206F30610F441502F
:102E700051099A01281B390BC9011F910F91FF902D
:102E8000EF90DF90CF9008951F920F920FB60F92A0
:102E900011248F939F93AF93BF9380919A02909147
:102EA0009B02A0919C02B0919D020196A11DB11DB3
:102EB00080939A0290939B02A0939C02B0939D02F0
:102EC000BF91AF919F918F910F900FBE0F901F9068
:102ED00018950E94F01FF8942FEF87EA91E6215091
:102EE00080409040E1F700C0000087E090EBDC01FB
:102EF0008093DA029093DB02A093DC02B093DD02B0
:102F00009CE088E10FB6F894A895809360000FBE0E
:102F100090936000FFCF0E947916811102C00E9439
:102F20005F160E948416809398020E948C1690E08F
:102F30009093CC028093CB020E948816682F70E099
:102F400080E090E00C945B138091A00280FF0BC0A6
:102F50006091070185E0689FB00111247595679520
:102F6000759567952BC081FF09C06091070185E0C9
:102F7000689FB00111247595679520C082FF07C036
:102F80006091070185E0689FB001112417C09091FE
:102F9000A1029923D1F060910601961788F720913C
:102FA000070185E0289F90011124929FA001939F23
:102FB000500D112470E0CA010E941F246038710571
:102FC00040F46115710539F002C065E070E0862FAC
:102FD00008958FE7089581E008958091A00280FF11
:102FE00008C06091050170E07595679575956795C6
:102FF00021C081FF06C06091050170E0759567955D
:1030000019C082FF04C06091050170E010C090916A
:10301000A1029923C1F0609104019617A0F7809155
:103020000501899FC001112470E00E941F246038AF
:10303000710528F46115710521F0862F08958FE739
:10304000089581E0089561E070E0F4CF803F21F4BD
:103050000E94A417819504C0813F29F40E94A417FF
:103060008093A4020895823F21F40E94A4178195C1
:1030700004C0833F29F40E94A4178093A3020895FB
:10308000893F19F40E94ED1705C08A3F31F40E9470
:10309000ED1781958093A50208958B3F21F40E943E
:1030A000ED17819504C08C3F29F40E94ED178093A1
:1030B000A6020895843F21F48091A202816017C086
:1030C000853F21F48091A202826011C0863F21F4E5
:1030D0008091A20284600BC0873F21F48091A202FC
:1030E000886005C0883F31F48091A202806180939E
:1030F000A20208958D3F21F48091A00281600BC04F
:103100008E3F21F48091A002826005C08F3F29F498
:103110008091A00284608093A0020895803F39F4DA
:103120008091A40287FF6CC01092A40269C0813F05
:1031300029F48091A4021816BCF362C09091A302F6
:10314000823F29F497FF5CC01092A30259C0833FCD
:1031500019F41916CCF354C0893F41F48091A502AB
:1031600018160CF04DC01092A5024AC08A3F29F4EF
:103170008091A50287FF44C0F6CF8B3F39F4809140
:10318000A60287FF3DC01092A6023AC08C3F29F4E8
:103190008091A6021816BCF333C0843F21F48091BD
:1031A000A2028E7F17C0853F21F48091A2028D7FFD
:1031B00011C0863F21F48091A2028B7F0BC0873F14
:1031C00021F48091A202877F05C0883F31F480916D
:1031D000A2028F7E8093A20213C08D3F21F48091C2
:1031E000A0028E7F0BC08E3F21F48091A0028D7FC4
:1031F00005C08F3F29F48091A0028B7F8093A002AD
:103200008091A30281110EC08091A40281110AC095
:103210008091A502811106C08091A602811102C091
:103220001092A102089582EA92E00E947B0A0E9415
:103230000E1790939F0280939E0208951F93CF9341
:10324000DF9380919E0290919F020E941A17AC0119
:103250009091A102992321F02091080130E006C04D
:10326000209109018AE0289F9001112442175307F9
:1032700008F485C08091A302C091A402D091A50258
:103280001091A602811107C0C11175C0D11173C080
:10329000111171C074C09F3F19F09F5F9093A102FC
:1032A000181624F40E94A4178093A3028091A3020D
:1032B00087FF05C00E94A41781958093A3021C1666
:1032C00024F40E94A4178093A4028091A40287FF93
:1032D00005C00E94A41781958093A4026091A30267
:1032E000662331F1C091A402CC2311F1062E000C0B
:1032F000770B880B990B0E94262323E333E343E3E8
:103300005FE30E948A230E94EE226093A3026C2F47
:10331000CC0F770B880B990B0E94262323E333E312
:1033200043E35FE30E948A230E94EE226093A4029B
:103330001D1624F40E94ED178093A5028091A5022A
:1033400087FF05C00E94ED1781958093A502111695
:1033500024F40E94ED178093A6028091A60287FFB5
:1033600005C00E94ED1781958093A602DF91CF9151
:103370001F910C9413199F3F09F08FCF97CFDF91C6
:10338000CF911F910895E2EAF2E085E0DF011D92FE
:103390008A95E9F71092A1021092A0020895833055
:1033A00081F128F4813059F08230D1F008958530D0
:1033B00009F449C0B8F1863009F456C008958091E7
:1033C0000901262F30E0280F311D2F3F310524F44D
:1033D000680F6093090108958FEF809309010895A4
:1033E00080910801262F30E0280F311D2F3F310535
:1033F00024F4680F6093080108958FEF809308010B
:10340000089580910701262F30E0280F311D2F3FAE
:10341000310524F4680F6093070108958FEF8093BE
:103420000701089580910601262F30E0280F311DF5
:103430002F3F310524F4680F6093060108958FEF44
:1034400080930601089580910501262F30E0280F12
:10345000311D2F3F310524F4680F60930501089555
:103460008FEF80930501089580910401262F30E0AD
:10347000280F311D2F3F310524F4680F609304019C
:1034800008958FEF809304010895833011F128F49B
:10349000813049F0823091F00895853081F120F13A
:1034A0008630C1F1089580910901681720F4861BC8
:1034B00080930901089510920901089580910801EF
:1034C000681720F4861B8093080108951092080164
:1034D000089580910701681720F4861B80930701E7
:1034E000089510920701089580910601681720F44D
:1034F000861B80930601089510920601089580911D
:103500000501681720F4861B809305010895109229
:103510000501089580910401681720F4861B8093AB
:10352000040108951092040108950F931F938732A8
:1035300008F04DC08E3108F093C0803109F47DC091
:1035400008F5873009F46BC068F4863009F0A3C031
:1035500080919802817F8E7F8093980281E0809392
:10356000A8029AC08B3009F48FC08E3009F093C046
:103570008091980282FB222720F991E0922790FB0C
:1035800082F964C0863109F47FC088F4813109F082
:1035900082C00E94A10F8091CB0287FB222720F9D5
:1035A00091E0922790FB87F98093CB026DC089311F
:1035B00009F46AC08B3109F06EC08091980281FBDA
:1035C000222720F991E0922790FB81F93FC08833B0
:1035D00009F45AC050F4893209F458C0853309F40B
:1035E00055C0873209F452C056C0833409F44EC026
:1035F00028F48A3308F44FC0895333C0883409F063
:103600004AC00E94A10F0FEF13ED20E301501040BC
:103610002040E1F700C000000E94691735C080918A
:103620009802982F9095917090FB80F98093980262
:1036300091112AC0897F877F10C08091980283FBF7
:10364000222720F991E0922790FB83F9809398023A
:103650009923D1F08091980281608093980214C0E0
:103660008D5141E050E060E070E08A019B0104C0B0
:10367000000F111F221F331F8A95D2F7C901B8010D
:103680000E945B130E94A10F81E006C061E070E020
:1036900080E090E0F5CF80E01F910F91089580E0E9
:1036A000089580E008958E518A3030F4E82FF0E0DC
:1036B000E354FE4F8081089580E00895CF93C82F92
:1036C0008091A802813079F018F08230E9F186C04B
:1036D000E0910201F09103018081813169F0823231
:1036E00009F07EC009C0E0910201F09103018081E0
:1036F000813111F0823261F48C2F0E944F1B8111B5
:1037000004C08C2F0E94951A1DC081E090E01AC061
:103710008C2F0E94511B811114C0C43179F048F4E0
:10372000CB3079F0C03109F05FC082E08093A8020D
:1037300008C0C93219F0C83321F056C01092A8024F
:1037400053C081E0817052C0C93281F110F5C4319B
:1037500069F1A8F4C73009F045C08AE080930901F7
:1037600094E19093080193E0909307018093060100
:1037700088E08093050188E28093040133C082EEE3
:103780008C0F863078F58C2F0E94531B8093A702F4
:1037900029C0CE34E9F020F4CB3421F56AE013C01F
:1037A000C13579F0C235F1F461E00DC08091A70216
:1037B000882319F01092A70215C081E08093A80217
:1037C00015C061E006C08091A7020E94CF190AC00F
:1037D0006AE08091A7020E94451A04C01092A802D4
:1037E00080E004C081E002C080E0ACCFCF910895BA
:1037F0008091C9020895CF93DF9300D01F92CDB777
:10380000DEB79C018091D102843019F593E0998351
:103810003B832A839093E9008FEF9091E8008150D9
:1038200095FD06C095ED9A95F1F700008111F5CF51
:103830008091E80085FF0DC040E050E063E070E05B
:10384000CE0101960E945B1E8091E8008E778093E6
:10385000E8000F900F900F90DF91CF910895CF93D4
:10386000DF9300D01F92CDB7DEB72091D102243074
:1038700021F522E029839B838A8383E08093E900FA
:103880008FEF9091E800815095FD06C095ED9A95D7
:10389000F1F700008111F5CF8091E80085FF0DC0A0
:1038A00040E050E063E070E0CE0101960E945B1EB4
:1038B0008091E8008E778093E8000F900F900F9032
:1038C000DF91CF9108952091D1022430F1F422E0CC
:1038D0002093E9002FEF3091E800215035FD06C01C
:1038E00035ED3A95F1F700002111F5CF2091E80070
:1038F00025FF0BC040E050E065E070E00E945B1ED9
:103900008091E8008E778093E8000895CF93DF934D
:10391000EC019091D102943009F046C080911401DD
:103920008823D9F08091CB0287FF17C09093E900DC
:103930008FEF9091E800815095FD06C095E19A9532
:10394000F1F700008111F5CF8091E80085FF2CC0D0
:1039500040E050E060E270E017C081E08093E90051
:103960008FEF9091E800815095FD06C095ED9A95F6
:10397000F1F700008111F5CF8091E80085FF14C0B8
:1039800040E050E068E070E0CE010E945B1E809154
:10399000E8008E778093E80080E2FE01A9EAB2E0B9
:1039A00001900D928A95E1F7DF91CF910895809172
:1039B000D002811109C00E94F01F0E944D20809109
:1039C000E20084608093E20008951092D00208958E
:1039D000089508950C94D61642E061EC81E00E94AF
:1039E0006A1F42E061EC82E00E946A1F42E061ECE3
:1039F00083E00E946A1F42E261EC84E00C946A1F3B
:103A00008091D302833009F455C030F4813071F0D5
:103A1000823009F48EC008958A3009F47AC08B3060
:103A200009F460C0893009F09CC020C08091D202A6
:103A3000813A09F096C08091E800877F8093E80082
:103A40008091D6029091D702892B21F460E289EA15
:103A500092E003C060E080E090E070E00E94A61E6B
:103A60008091E8008B778093E80008958091D202DE
:103A7000813209F076C08091D6029091D7020097EA
:103A800019F0039709F06DC08091E800877F80935B
:103A9000E8008091E80082FD05C08091D10281118B
:103AA000F8CF5FC08091F1008093C9028091E80057
:103AB0008B7753C08091D202813A09F052C0809135
:103AC000D6029091D702892B09F04BC08091E80073
:103AD000877F8093E8008091E80080FFFCCF809191
:103AE000140136C08091D2028132D9F58091D6027C
:103AF0009091D702892BA9F58091E800877F809368
:103B0000E8000E949F1F8091D402809314010C94BE
:103B1000A10F8091D202813221F58091E800877F48
:103B20008093E8000E949F1F8091D5028093CA0273
:103B300008958091D202813AA1F48091E800877FB4
:103B40008093E8008091E80080FFFCCF8091CA025A
:103B50008093F1008091E8008E778093E8000C94C8
:103B60009F1F089584B7877F84BF0FB6F894A895E8
:103B700080916000886180936000109260000FBEA9
:103B800080E880936100109261000E94B30A0E9455
:103B9000F01F0E944D208091E20084608093E2003B
:103BA00078940E94D3220E94B50A8AE091E00E9494
:103BB0005F0A8091D102853069F40E949516809148
:103BC000CF028823B1F30E94C216882391F30E948A
:103BD000451EEFCF0E94BB0AECCF292F332723309D
:103BE0003105C9F064F42130310581F0223031050E
:103BF00009F043C08DE690E022E234E042C0213279
:103C00003105F1F02232310541F137C082E190E017
:103C10002FE834E036C099278130910541F0823099
:103C2000910541F0892B49F5EEE1F4E005C0E6E0AD
:103C3000F4E002C0EEEEF3E0849190E09F0121C039
:103C40006430D8F4E62FF0E0EE0FFF1FED52FE4F88
:103C50002081318189E090E014C0643070F470E01C
:103C6000FB01EE0FFF1FE553FE4F20813181FB0169
:103C7000E953FE4F808190E004C080E090E020E0B6
:103C800030E0FA0131832083089580E189BD82E12B
:103C900089BD09B400FEFDCF8091D8008F7D80934F
:103CA000D8008091E00082608093E0008091E00085
:103CB00081FDFCCF0895CF92DF92EF92FF920F9398
:103CC0001F93CF93DF93EC018B016A010E94BE1F0B
:103CD000811133C0C114D10439F0F6018081918182
:103CE000081B190BC80FD91FE12CF12C0115110568
:103CF00019F18091E80085FD16C08091E8008E776B
:103D00008093E800C114D10449F0F60180819181CB
:103D1000E80EF91EF182E08285E00FC00E94BE1F0E
:103D2000882321F30AC089918093F1000150110981
:103D3000FFEFEF1AFF0ADACF80E0DF91CF911F91FA
:103D40000F91FF90EF90DF90CF9008952091D802CF
:103D50003091D9022617370748F06115710539F4FB
:103D60002091E8002E772093E80001C0B90140E0DF
:103D700061157105A9F12091D102222309F443C0F4
:103D8000253009F442C02091E80023FD40C0209175
:103D9000E80022FD32C02091E80020FFE9CF4091E9
:103DA000F3002091F20030E0342BFC01CF016115CB
:103DB000710559F02830310540F481918093F1006C
:103DC000615071092F5F3F4FF1CF41E0283031053D
:103DD00009F040E02091E8002E772093E800C8CF5A
:103DE0004111C9CF0AC08091D102882361F085308A
:103DF00061F08091E80083FD0AC08091E80082FFB5
:103E0000F2CF80E0089582E0089583E0089581E094
:103E100008952091D8023091D9022617370748F02B
:103E20006115710539F42091E8002E772093E800A0
:103E300001C0B901FC0120E06115710591F180918B
:103E4000D102882309F440C0853009F43FC0809135
:103E5000E80083FD3DC08091E80082FD2FC0809185
:103E6000E80080FFE9CF2091F3008091F20090E01C
:103E7000922B6115710559F08830910540F4249119
:103E80002093F1003196615071090196F2CF21E043
:103E9000089709F020E08091E8008E778093E80091
:103EA000CBCF2111CCCF0AC08091D102882361F001
:103EB000853061F08091E80083FD0AC08091E800C0
:103EC00082FFF2CF80E0089582E0089583E00895B4
:103ED00081E00895982F973058F59093E90098174E
:103EE00039F07091EC002091ED005091F00003C08A
:103EF000242F762F50E021FF19C03091EB003E7F38
:103F00003093EB003091ED003D7F3093ED00309128
:103F1000EB0031603093EB007093EC002093ED00E8
:103F20005093F0002091EE0027FF07C09F5FD3CF92
:103F30008F708093E90081E0089580E0089580917A
:103F4000D20287FF11C08091E80082FD05C08091F8
:103F5000D1028111F8CF11C08091E8008B770BC09E
:103F60008091D102882349F08091E80080FFF8CF4A
:103F70008091E8008E778093E80008952091E40016
:103F80003091E50095E64091EC00842F817040FF70
:103F900022C08091E80080FD1CC08091D10288235E
:103FA00091F0853091F08091EB0085FD10C040913B
:103FB000E4005091E5004217530729F39A0191500C
:103FC00011F784E0089582E0089583E0089581E088
:103FD000089580E008954091E80042FFDECF089503
:103FE0000E945E200E946620E0EEF0E08081816009
:103FF0008083E8EDF0E080818F77808319BCA7EDA6
:10400000B0E08C918E7F8C9380818F7E8083109224
:10401000D00208950F931F93CF93DF930E945E20E9
:104020000E946620C8EDD0E088818F7788838881E0
:104030008068888388818F7D888319BC1092D10223
:104040001092CD021092CF021092CE0200EE10E03C
:10405000F80180818B7F808388818160888342E042
:1040600060E080E00E946A1FE1EEF0E080818E7FD8
:104070008083E2EEF0E080818160808380818860CF
:104080008083F80180818E7F80838881806188832E
:10409000DF91CF911F910F910895E8EDF0E08081BD
:1040A0008F7E8083E7EDF0E080818160808384E013
:1040B00082BF81E08093D0020C940A20E8EDF0E00A
:1040C00080818E7F80831092E20008951092DA0042
:1040D0001092E10008951F920F920FB60F921124D3
:1040E0002F933F934F935F936F937F938F939F9300
:1040F000AF93BF93EF93FF938091E10082FF0BC0DA
:104100008091E20082FF07C08091E1008B7F809365
:10411000E1000E94D2228091DA0080FF1FC08091CE
:10412000D80080FF1BC08091DA008E7F8093DA0078
:104130008091D90080FF0DC080E189BD82E189BDF9
:1041400009B400FEFDCF81E08093D1020E94D71C0C
:1041500005C019BC1092D1020E94E51C8091E100BB
:1041600080FF19C08091E20080FF15C08091E200BD
:104170008E7F8093E2008091E20080618093E20074
:104180008091D80080628093D80019BC85E080932C
:10419000D1020E94E91C8091E10084FF30C080912F
:1041A000E20084FF2CC080E189BD82E189BD09B4B1
:1041B00000FEFDCF8091D8008F7D8093D800809144
:1041C000E1008F7E8093E1008091E2008F7E8093FA
:1041D000E2008091E20081608093E2008091CD0254
:1041E000882311F084E007C08091E30087FD02C0BE
:1041F00081E001C083E08093D1020E94EA1C80919B
:10420000E10083FF29C08091E20083FF25C08091F7
:10421000E100877F8093E10082E08093D1021092D9
:10422000CD028091E1008E7F8093E1008091E200D9
:104230008E7F8093E2008091E20080618093E200B3
:1042400042E060E080E00E946A1F8091F000886098
:104250008093F0000E94E81CFF91EF91BF91AF9115
:104260009F918F917F916F915F914F913F912F918E
:104270000F900FBE0F901F9018951F920F920FB6C0
:104280000F9211242F933F934F935F936F937F93DC
:104290008F939F93AF93BF93CF93DF93EF93FF934E
:1042A000C091E900CF708091EC00D82FD17080FDD3
:1042B000D0E81092E9008091F000877F8093F000B1
:1042C00078940E9481211092E9008091F00088602A
:1042D0008093F000CD2BCF70C093E900FF91EF9158
:1042E000DF91CF91BF91AF919F918F917F916F910E
:1042F0005F914F913F912F910F900FBE0F901F90A4
:1043000018951F93CF93DF93CDB7DEB7AA970FB65B
:10431000F894DEBF0FBECDBFE2EDF2E088E08E0F75
:104320009091F10091938E13FBCF0E94001D80911C
:10433000E80083FF1FC18091D2029091D302492FE0
:1043400050E04A30510508F015C1FA01E556FF4F1B
:104350000C943324803881F0823809F00BC18091AD
:10436000D6028F708093E9008091EB0085FB88274F
:1043700080F91092E90006C08091CE029091CF02A0
:10438000911182609091E800977F9093E80080936C
:10439000F1001092F100C8C0282F2D7F09F0EAC06B
:1043A000882319F0823061F0E5C08091D402813019
:1043B00009F0E0C0933009F080E08093CF022BC079
:1043C0008091D402811127C08091D6028F7009F4A8
:1043D000D1C08093E9002091EB0020FF1CC09330F6
:1043E00021F48091EB00806214C09091EB00906109
:1043F0009093EB0021E030E0A90102C0440F551F6B
:104400008A95E2F74093EA001092EA008091EB006F
:1044100088608093EB001092E9008091E800877F2C
:1044200086C08111A7C01091D4021F778091E3004C
:104430008078812B8093E3008091E800877F8093D0
:10444000E8000E949F1F8091E80080FFFCCF8091D0
:10445000E30080688093E300111102C082E001C094
:1044600083E08093D10286C08058823008F082C0F9
:104470008091D4029091D5028C3D53E0950779F557
:1044800083E08A838AE289834FB7F894DE0113962A
:1044900020E03EE051E2E32FF0E050935700E4913A
:1044A00020FF03C0E295EF703F5FEF708E2F90E02A
:1044B000EA3010F0C79601C0C0968D939D932F5F90
:1044C000243149F74FBF8091E800877F8093E8004F
:1044D0006AE270E0CE0101960E94A61E14C0AE01F1
:1044E0004F5F5F4F6091D6020E94ED1DBC01892B8A
:1044F00009F440C09091E800977F9093E80089818B
:104500009A810E94091F8091E8008B778093E800D0
:1045100031C0803879F58091E800877F8093E8008A
:104520008091CD028093F1008091E8008E77809396
:10453000E8000E949F1F1EC081111CC09091D402F0
:104540009230C0F48091E800877F8093E8009093D8
:10455000CD020E949F1F8091CD02811106C08091E3
:10456000E30087FD02C081E001C084E08093D102B6
:104570000E94EC1C8091E80083FF0AC08091E80053
:10458000877F8093E8008091EB0080628093EB004E
:10459000AA960FB6F894DEBF0FBECDBFDF91CF91C4
:1045A0001F9108950895CF938091D1028823A1F09F
:1045B000C091E900CF709091EC00892F817090FD3F
:1045C00080E8C82B1092E9008091E80083FD0E94EA
:1045D0008121CF70C093E900CF9108950E94F52208
:1045E0006894B1110C94842308950E94692388F083
:1045F0009F5798F0B92F9927B751B0F0E1F0660FA7
:10460000771F881F991F1AF0BA95C9F714C0B130E7
:1046100091F00E948323B1E008950C948323672FC7
:10462000782F8827B85F39F0B93FCCF38695779516
:104630006795B395D9F73EF49095809570956195FF
:104640007F4F8F4F9F4F0895E89409C097FB3EF42A
:1046500090958095709561957F4F8F4F9F4F9923CF
:10466000A9F0F92F96E9BB279395F695879577954D
:104670006795B795F111F8CFFAF4BB0F11F460FF0D
:104680001BC06F5F7F4F8F4F9F4F16C0882311F065
:1046900096E911C0772321F09EE8872F762F05C079
:1046A000662371F096E8862F70E060E02AF09A9514
:1046B000660F771F881FDAF7880F9695879597F909
:1046C000089557FD9058440F551F59F05F3F71F002
:1046D0004795880F97FB991F61F09F3F79F0879569
:1046E0000895121613061406551FF2CF4695F1DFF2
:1046F00008C0161617061806991FF1CF8695710582
:10470000610508940895E894BB2766277727CB01B5
:1047100097F908950E949D230C940E240E94002472
:1047200038F00E94072420F0952311F00C94F72311
:104730000C94FD2311240C9484230E94612370F3B4
:10474000959FC1F3950F50E0551F629FF001729F36
:10475000BB27F00DB11D639FAA27F00DB11DAA1F45
:10476000649F6627B00DA11D661F829F2227B00D92
:10477000A11D621F739FB00DA11D621F839FA00D1D
:10478000611D221F749F3327A00D611D231F849F6D
:10479000600D211D822F762F6A2F11249F575040C4
:1047A0009AF0F1F088234AF0EE0FFF1FBB1F661F3F
:1047B000771F881F91505040A9F79E3F510580F008
:1047C0000C94F7230C9484235F3FE4F3983ED4F3D6
:1047D000869577956795B795F795E7959F5FC1F7AC
:1047E000FE2B880F911D9695879597F9089597F957
:1047F0009F6780E870E060E008959FEF80EC089587
:1048000000240A94161617061806090608950024AF
:104810000A9412161306140605060895092E039429
:10482000000C11F4882352F0BB0F40F4BF2B11F49D
:1048300060FF04C06F5F7F4F8F4F9F4F089597FBBE
:10484000072E16F4009407D077FD09D00E94392472
:1048500007FC05D03EF4909581959F4F0895709583
:1048600061957F4F0895EE0FFF1F0590F491E02DA5
:104870000994AA1BBB1B51E107C0AA1FBB1FA617A7
:10488000B70710F0A61BB70B881F991F5A95A9F7F9
:1048900080959095BC01CD010895F999FECF92BD08
:1048A00081BDF89A992780B50895A8E1B0E042E06B
:1048B00050E00C947524262FF999FECF92BD81BD4E
:1048C000F89A019700B4021639F01FBA20BD0FB64E
:1048D000F894FA9AF99A0FBE08950196272F0E942C
:1048E0005C240C945B24DC01CB01FC01F999FECF24
:1048F00006C0F2BDE1BDF89A319600B40D92415068
:0A4900005040B8F70895F894FFCF77
:10490A000520750228080A03140AF81B861C631C72
:10491A002F1CFB1B01000D010D020D030D040D05DB
:10492A000D000C010C020C030C040C050C000B010D
:10493A000B020B030B040B050B000A010A020A0304
:10494A000A040A050A0009010902090309040905FA
:10495A0009000801080208030804080508000701FD
:10496A0007020703070407050700060106020603F4
:10497A0006040605060005010502050305040505EA
:10498A0005000401040204030404040504000301ED
:10499A0003020303030403050300020102020203E4
:1049AA0002040205020001010102010301040105DA
:1049BA0001000001000200030004000500010203D7
:1049CA0004050607080900404D36395D051005DA69
:0C49DA0004A10434044D0466047F0400B2
:00000001FF
